{
  "_format": "hh-sol-artifact-1",
  "contractName": "BipulContract",
  "sourceName": "contracts/BipulContract.sol",
  "abi": [
    {
      "inputs": [],
      "stateMutability": "nonpayable",
      "type": "constructor"
    },
    {
      "inputs": [
        {
          "internalType": "uint256",
          "name": "_number1",
          "type": "uint256"
        },
        {
          "internalType": "uint256",
          "name": "_number2",
          "type": "uint256"
        }
      ],
      "name": "multiply",
      "outputs": [],
      "stateMutability": "payable",
      "type": "function"
    },
    {
      "inputs": [],
      "name": "ownerAddress",
      "outputs": [
        {
          "internalType": "address",
          "name": "",
          "type": "address"
        }
      ],
      "stateMutability": "view",
      "type": "function"
    },
    {
      "inputs": [],
      "name": "ownerName",
      "outputs": [
        {
          "internalType": "string",
          "name": "",
          "type": "string"
        }
      ],
      "stateMutability": "view",
      "type": "function"
    },
    {
      "inputs": [],
      "name": "result",
      "outputs": [
        {
          "internalType": "uint256",
          "name": "",
          "type": "uint256"
        }
      ],
      "stateMutability": "view",
      "type": "function"
    },
    {
      "inputs": [
        {
          "internalType": "uint256",
          "name": "_number1",
          "type": "uint256"
        },
        {
          "internalType": "uint256",
          "name": "_number2",
          "type": "uint256"
        }
      ],
      "name": "subtract",
      "outputs": [],
      "stateMutability": "payable",
      "type": "function"
    }
  ],
  "bytecode": "0x60806040523480156200001157600080fd5b5033600160006101000a81548173ffffffffffffffffffffffffffffffffffffffff021916908373ffffffffffffffffffffffffffffffffffffffff1602179055506040518060400160405280600581526020017f426970756c000000000000000000000000000000000000000000000000000000815250600090816200009991906200031a565b5062000401565b600081519050919050565b7f4e487b7100000000000000000000000000000000000000000000000000000000600052604160045260246000fd5b7f4e487b7100000000000000000000000000000000000000000000000000000000600052602260045260246000fd5b600060028204905060018216806200012257607f821691505b602082108103620001385762000137620000da565b5b50919050565b60008190508160005260206000209050919050565b60006020601f8301049050919050565b600082821b905092915050565b600060088302620001a27fffffffffffffffffffffffffffffffffffffffffffffffffffffffffffffffff8262000163565b620001ae868362000163565b95508019841693508086168417925050509392505050565b6000819050919050565b6000819050919050565b6000620001fb620001f5620001ef84620001c6565b620001d0565b620001c6565b9050919050565b6000819050919050565b6200021783620001da565b6200022f620002268262000202565b84845462000170565b825550505050565b600090565b6200024662000237565b620002538184846200020c565b505050565b5b818110156200027b576200026f6000826200023c565b60018101905062000259565b5050565b601f821115620002ca5762000294816200013e565b6200029f8462000153565b81016020851015620002af578190505b620002c7620002be8562000153565b83018262000258565b50505b505050565b600082821c905092915050565b6000620002ef60001984600802620002cf565b1980831691505092915050565b60006200030a8383620002dc565b9150826002028217905092915050565b6200032582620000a0565b67ffffffffffffffff811115620003415762000340620000ab565b5b6200034d825462000109565b6200035a8282856200027f565b600060209050601f8311600181146200039257600084156200037d578287015190505b620003898582620002fc565b865550620003f9565b601f198416620003a2866200013e565b60005b82811015620003cc57848901518255600182019150602085019450602081019050620003a5565b86831015620003ec5784890151620003e8601f891682620002dc565b8355505b6001600288020188555050505b505050505050565b6106c980620004116000396000f3fe60806040526004361061004a5760003560e01c8063165c4a161461004f5780633ef5e4451461006b578063653721471461008757806365ac2320146100b25780638f84aa09146100dd575b600080fd5b610069600480360381019061006491906102f2565b610108565b005b610085600480360381019061008091906102f2565b610161565b005b34801561009357600080fd5b5061009c6101fd565b6040516100a99190610341565b60405180910390f35b3480156100be57600080fd5b506100c7610203565b6040516100d491906103ec565b60405180910390f35b3480156100e957600080fd5b506100f2610291565b6040516100ff919061044f565b60405180910390f35b6000341161014b576040517f08c379a0000000000000000000000000000000000000000000000000000000008152600401610142906104b6565b60405180910390fd5b80826101579190610505565b6002819055505050565b600034116101a4576040517f08c379a000000000000000000000000000000000000000000000000000000000815260040161019b906104b6565b60405180910390fd5b808210156101e7576040517f08c379a00000000000000000000000000000000000000000000000000000000081526004016101de906105df565b60405180910390fd5b80826101f391906105ff565b6002819055505050565b60025481565b6000805461021090610662565b80601f016020809104026020016040519081016040528092919081815260200182805461023c90610662565b80156102895780601f1061025e57610100808354040283529160200191610289565b820191906000526020600020905b81548152906001019060200180831161026c57829003601f168201915b505050505081565b600160009054906101000a900473ffffffffffffffffffffffffffffffffffffffff1681565b600080fd5b6000819050919050565b6102cf816102bc565b81146102da57600080fd5b50565b6000813590506102ec816102c6565b92915050565b60008060408385031215610309576103086102b7565b5b6000610317858286016102dd565b9250506020610328858286016102dd565b9150509250929050565b61033b816102bc565b82525050565b60006020820190506103566000830184610332565b92915050565b600081519050919050565b600082825260208201905092915050565b60005b8381101561039657808201518184015260208101905061037b565b60008484015250505050565b6000601f19601f8301169050919050565b60006103be8261035c565b6103c88185610367565b93506103d8818560208601610378565b6103e1816103a2565b840191505092915050565b6000602082019050818103600083015261040681846103b3565b905092915050565b600073ffffffffffffffffffffffffffffffffffffffff82169050919050565b60006104398261040e565b9050919050565b6104498161042e565b82525050565b60006020820190506104646000830184610440565b92915050565b7f56616c7565206d7573742062652067726561746572207468616e203000000000600082015250565b60006104a0601c83610367565b91506104ab8261046a565b602082019050919050565b600060208201905081810360008301526104cf81610493565b9050919050565b7f4e487b7100000000000000000000000000000000000000000000000000000000600052601160045260246000fd5b6000610510826102bc565b915061051b836102bc565b9250828202610529816102bc565b915082820484148315176105405761053f6104d6565b5b5092915050565b7f4669727374206e756d6265722073686f756c642062652067726561746572207460008201527f68616e206f7220657175616c20746f20746865207365636f6e64206e756d626560208201527f7200000000000000000000000000000000000000000000000000000000000000604082015250565b60006105c9604183610367565b91506105d482610547565b606082019050919050565b600060208201905081810360008301526105f8816105bc565b9050919050565b600061060a826102bc565b9150610615836102bc565b925082820390508181111561062d5761062c6104d6565b5b92915050565b7f4e487b7100000000000000000000000000000000000000000000000000000000600052602260045260246000fd5b6000600282049050600182168061067a57607f821691505b60208210810361068d5761068c610633565b5b5091905056fea2646970667358221220dc0b91b7fa9c7e885175959e71242efcb73cf4185089ba5a983a13821ae4708a64736f6c63430008120033",
  "linkReferences": {},
  "deployedLinkReferences": {}
}